:03210000022103B6
:0C210300787FE4F6D8FD75812002214AA7
:0D218F00E4FFAE070FC3EE6480948240F5BC
:01219C002220
:02219D00AD078C
:10219F00D2EEC2EDE4FCC3EC648094885018ED30AD
:1021AF00E703D38001C392EFD2ED12218FC2ED0C62
:1021BF00ED25E0FD80E0C2EED2ED12218FA2EC9270
:0521CF0004C2EDA204B2
:0121D40022E8
:1021D500D2EED2EFD2ED12218FC2EF12218FC2EDD6
:0121E50022D7
:1021E600D2EEC2EDC2EFD2ED12218FD2EF12218FC5
:0321F600C2EE2214
:0B21F900AD071221D5AF0512219D2279
:0E220400D2EEC2EDC2EFD2ED12218FC2ED225A
:0E221200D2EEC2EDD2EFD2ED12218FC2ED223C
:10222000D2EBEF54FEFF1221F950051221E6C32232
:052230001221E6D3229B
:10223500E4FDC2EEC2EDFCED25E0FDD2ED12218FED
:0F224500A2ECE4334DFDC2ED0CECB408EAAF059A
:012254002267
:0D225500904056EDF0A3EAF0A3EBF0A907CE
:10226200D2EBE954FEF9FF1221F950051221E6D30F
:1022720022904056E0FF12219D50051221E6D32202
:1022820012218F12218FE94401F9FF1221F9500521
:102292001221E6D32212218F904059E014602CE4DF
:1022A200FB904059E014FFEBC39F501F122235A34D
:1022B200EFF0122204E0FF904057E475F001122E75
:1022C2006085F082F583EFF00B80D61222359040C4
:1022D2005AEFF0122212E0FF904057E0FCA3E0F523
:0922E200828C83EFF01221E6C3A7
:0122EB0022D0
:0222EC00A90542
:1022EE00D2EBEF54FEFF1221F950051221E6D32254
:1022FE00AF0112219D50051221E6D322E4F9904040
:10230E005BE0FFE9C39F50188B828A83E0FF1221A6
:10231E009D50051221E6D322090BBB00010A80DE77
:04232E001221E6C3CF
:012332002288
:08252200C18341400100C10228
:05233300A20592032247
:05233800904054EFF09D
:10233D007F067E00E04401FD1229537F067E00904A
:10234D004054E054FEFD122953E4FFFE0FBF00017F
:07235D000EBE01F8BF2CF5D4
:012364002256
:10236500E4904000F07F01FE3000047D0280027D94
:1023750000ED440CFD3001047C0180027C00ED4C35
:09238500FD1229537F08122338D0
:01238E00222C
:10238F007F017E007D011229537F08122338E490CC
:05239F004001F0C20244
:0123A4002216
:1023A500E490404FF0A3F0904050E004F0700690A8
:1023B500404FE004F090404FE0B40FEBA3E0B4A031
:1023C500E67F017E007D301229537F08122338E411
:1023D50090404FF0A3F0904050E004F0700690401C
:1023E5004FE004F090404FE0B405EBA3E0B4DCE629
:1023F5007F017E007D301229537F08122338E49037
:10240500404FF0A3F0904050E004F0700690404F2C
:10241500E004F090404FE07004A3E0643270E67F82
:10242500017E007D301229537F081223387F017EFB
:10243500007D381229537F081223387F017E007DE5
:10244500081229537F081223387F017E007D01126F
:1024550029537F081223387F017E007D06122953F8
:102465007F081223387F017E007D0C1229537F08D7
:03247500122338F7
:012478002241
:10247900904052EFF030031D904001E0FFA202921C
:10248900051224B0904001E004F0D36480948F4099
:1024990004E4F0B2027F017E00904052E0FD12296F
:0724A900537F0C12233822BF
:1024B000904053EFF07F017E00E0FD3005047C404A
:1024C00080027C00ED2C4480FD1229537F081223EA
:0E24D00038904053E0904001F0A205920222A5
:0B24DE0090404FEBF0A3EAF0A3E9F000
:1024E900A2039204D20512233390404FE0FBA3E0EC
:1024F900FAA3E0F9122E1F601890404FE0A3E4758B
:10250900F001122E60A9F0FA122E1FFF1224798011
:08251900D8A20492051223333D
:012521002297
:10289B0048656C6C6F210D0A0020202020454550A7
:1028AB00524F4D20202020005772697465206572AD
:1028BB00726F7221005772697465204F4B0052651D
:1028CB006164206572726F722100436865636B20CF
:1028DB006572726F722100436865636B204F4B000A
:1028EB00436C6F636B2073657474696E67206661EC
:1028FB00696C6564210D0A0020202020436C6F63F6
:10290B006B20202020200043757272656E7420743A
:10291B00696D653A20004572726F722100666169BC
:10292B006C656420746F20726574726965766521BD
:10293B000D0A000D0A52656164696E67206B65793B
:08294B00626F6172640D0A0065
:07252A004440020001020120
:102546001223A57FFDC2041229BD7BFF7A28799B41
:10255600122989122D0FE4904049F0A3F090404AC9
:10256600E0FFF4FE74062FF582E43440F583EEF0C6
:1025760090404AE004F07006904049E004F0904034
:1025860049E07004A3E0643270D312238F7BFF7A94
:102596002879A41224DEE4FFD2051224B0E4FF7CDD
:1025A600407D067B1D122A13500B7BFF7A2879B3D8
:1025B6001224DE80097BFF7A2879C01224DEE4909B
:1025C6004049F0A3F0904049E0FEA3E0FFE4FCFDA3
:1025D6007BE87AFDF9F8D3122E76401090404AE057
:1025E60004F07006904049E004F080D9E4FFD2057B
:1025F6001224B0E4FF7C407D067B1D122B19500B84
:102606007BFF7A2879C91224DE8059E4904049F08C
:10261600A3F090404AE0FFF4FE74062FF582E434FE
:1026260040F583E06E600B7BFF7A2879D51224DEB5
:10263600801D90404AE004F07006904049E004F0A6
:10264600C390404AE0941D904049E0940040C390F6
:102656004049E07004A3E0641D70097BFF7A287985
:10266600E21224DEE4904049F0A3F0904049E0FEF7
:10267600A3E0FFE4FCFD7B607AEAF9F8D3122E763C
:10268600401A1229765005122981801090404AE09E
:1026960004F07006904049E004F080CF7E407F024F
:1026A600122C6450097BFF7A2879EB1229891223B0
:1026B6008F7BFF7A2979031224DE122976500612BF
:1026C600298102282D7BFF7A297912122989E4FFB4
:1026D600D2051224B07E407F02122B8050157BFF5C
:1026E6007A2979211224DE7BFF7A29792812298911
:1026F60002282DE4904049F0A3F0904005E0FF75D4
:10270600F00A842430FE904049E475F001122E60F0
:10271600FC740625F0F582EC3440F583EEF0EF7597
:10272600F00A84E5F02430FF904049E475F0011288
:102736002E60FC740625F0F582EC3440F583EFF04C
:10274600904049E475F001122E60FE740625F0F5FE
:1027560082EE3440F583743AF0904004E0FF75F061
:102766000A842430FE904049E475F001122E60FC84
:10277600740625F0F582EC3440F583EEF0EF75F043
:102786000A84E5F02430FF904049E475F001122EEA
:1027960060FC740625F0F582EC3440F583EFF0908A
:1027A6004049E475F001122E60FE740625F0F582AC
:1027B600EE3440F583743AF0904003E0FF75F00A7A
:1027C600842430FE904049E475F001122E60FC74BA
:1027D6000625F0F582EC3440F583EEF0EF75F00A4D
:1027E60084E5F02430FF904049E475F001122E6034
:1027F600FC740625F0F582EC3440F583EFF090404A
:102806004AE02406F582E43440F583E4F07B017A5D
:102816004079061229897F0D1229797B017A407940
:10282600061224DE0226C07BFF7A29793E12298908
:1028360012238FE490404EF07F077E0090404EE0DA
:10284600FD12295390404EE0FF25E0F020E704E01A
:102856004401F07B017A40794D122D64501290406C
:102866004DE0FF12297990404DE0FF12247980C88F
:10287600E4904049F0A3F0C390404AE094D09040E1
:1028860049E0940750B2A3E004F07006904049E096
:0428960004F080E3E7
:01289A00221B
:0F295300AC847584088F828E83EDF0AF048F847F
:012962002252
:10296300AD84E4FC7584088F828E83E0FCAF058F11
:0229730084FFDF
:01297500223F
:03297600A2982202
:082979008F99C2993099FD22EB
:082981003098FDC298AF9922C5
:1029890090404FEBF0A3EAF0A3E9F090404FE0FB51
:10299900A3E0FAA3E0F9122E1F601890404FE0A3BC
:1029A900E475F001122E60A9F0FA122E1FFF122908
:0429B9007980D82227
:1029BD008F8D438920300405438780800353877FA3
:0929CD00438840759850C2AC2209
:1029D600EF75F008A42403FFE5F03420FE0FEFAAFC
:1029E6000670010E14F5828A837402F08F828E833C
:0529F600ECF0A3EDF080
:0129FB0022B9
:1029FC00EF75F008A42404FFE5F03420FE8F82F577
:062A0C0083E0FEA3E0FFE1
:012A120022A1
:0B2A130090404FEFF0A3ECF0A3EDF0BB
:102A1E00EBFF90404FE02FFFE433FED3EF9480EEB8
:102A2E00648094804002D322EB131313541F904002
:102A3E0054F0EB5407904056F0E4904055F090401F
:102A4E0054E0FFA3E0C39F5060E4904052F0A3F027
:102A5E007FA21222204017904052E475F001122EF0
:102A6E004AFED3E5F09488EE941340E4D3229040CE
:102A7E0055E0FF33333354F8FE90404FE02EFDEF18
:102A8E0075F008A4FF904051E02FFB904050E035C8
:102A9E00F0FA90405B7408F07FA21222EC5002D341
:102AAE0022904055E004F08095904056E0605AE444
:102ABE00904052F0A3F07FA2122220401790405275
:102ACE00E475F001122E4AFED3E5F09488EE9413CD
:102ADE0040E4D322904055E0FF33333354F8FE9058
:102AEE00404FE02EFDEF75F008A4FF904051E02F0F
:102AFE00FB904050E035F0FA904056E090405BF08D
:0A2B0E007FA21222EC5002D322C372
:012B1800229A
:0E2B190090404FEFF0A3ECF0A3EDF0A3EBF033
:102B2700E0FF90404FE02FFFE433FED3EF9480EEB9
:102B3700648094804002D322E4904053F0A3F07F56
:102B4700A21222204017904053E475F001122E4A3A
:102B5700FED3E5F09488EE941340E4D3227FA2904D
:102B6700404FE0FDA3E0FAA3E0FBA3E0904059F05B
:082B77001222555002D322C3C3
:012B7F002233
:082B800090404FEEF0A3EFF0CE
:102B88007FA01222204002D3227FA07D0190404FD7
:102B9800E0FAA3E0FB9040597404F0122255500269
:102BA800D32290404FE0FEA3E0FFF5828E83E0FD44
:102BB80054F0FCC4540F75F00AA4FCED540F2CF02B
:102BC800A3E0FD54F0FCC4540F75F00AA4FCED54C6
:102BD8000F2C8F828E83A3F090404FE0FEA3E0FF7E
:102BE800F5828E83A3A3E0FD54F0FCC4540F75F066
:102BF8000AA4FCED540F2C8F828E83A3A3F08F823E
:102C08008E83A3A3A3E0FF5430FEC4540F75F00ACB
:102C1800A4FEEF540F2EFEEF54C0602EEFC3940CA9
:102C28005016EE240CFF90404FE0FCA3E0F5828C98
:102C380083A3A3A3EFF0802290404FE0FCA3E0F52C
:102C4800828C83A3A3A3E4F0801090404FE0FCA300
:0B2C5800E0F5828C83A3A3A3EEF0C381
:012C6300224E
:082C640090404FEEF0A3EFF0E9
:102C6C007FA01222204002D32290404FE0FEA3E02E
:102C7C00FFF5828E83E0FD75F00A84FCC454F0FCF1
:102C8C00ED75F00A84E5F02C904052F08F828E8323
:102C9C00A3E0FD75F00A84FCC454F0FCED75F00A59
:102CAC0084E5F02C904053F08F828E83A3A3E0FF39
:102CBC0075F00A84FEC454F0FEEF75F00A84E5F05A
:102CCC002E904054F090404FE0FEA3E0F5828E83AE
:102CDC00A3A3A3E0543FFF75F00A84FEC454F0FE96
:102CEC00EF75F00A84E5F02E904055F07FA07D0141
:102CFC007A407B5290405B7404F01222EC5002D369
:022D0C0022C3E0
:012D0E0022A2
:102D0F00E4904050F0A3F07F047E007D24122953FD
:102D1F00E490404FF090404FE004F0E0B402F67FB3
:102D2F00047E007D20122953E490404FF090404FD5
:102D3F00E004F0E0B402F6904051E004F070069029
:102D4F004050E004F0C3904051E094F4904050E0C4
:042D5F00940140B3E8
:012D6300224D
:102531005140383134372A32353830333639234136
:0425410042434400CD
:0B2D640090404FEBF0A3EAF0A3E9F071
:102D6F00E4904054F0904054E0FFC39404400302B9
:102D7F002E1D7401A807088002C333D8FCFDE4FFA1
:102D8F00FEEDF4FD122953E4904053F0E4FFFE12E0
:102D9F002963904053E0FE7410A806088002C333E5
:102DAF00D8FC5F904052F07050FFFE0FBF00010E35
:102DBF00BE27F8BF10F5E4FFFE122963904053E0E1
:102DCF00FE7410A806088002C333D8FC5F904052EF
:102DDF00F07026904054E0FF25E025E02E2438F5D2
:102DEF0082E43440F583E0FF90404FE0FBA3E0FA2C
:102DFF00A3E0F9EF122E38D322904053E004F0E015
:0F2E0F00C394044087904054E004F0022D74C334
:012E1E002291
:10210F00022546E493A3F8E493A34003F68001F27B
:10211F0008DFF48029E493A3F85407240CC8C333D1
:10212F00C4540F4420C8834004F456800146F6DFA0
:10213F00E4800B0102040810204080902522E47EE9
:10214F00019360BCA3FF543F30E509541FFEE49395
:10215F00A360010ECF54C025E060A840B8E493A35C
:10216F00FAE493A3F8E493A3C8C582C8CAC583CA87
:10217F00F0A3C8C582C8CAC583CADFE9DEE780BE3F
:012545000095
:102E1F00BB010689828A83E0225002E722BBFE02B1
:092E2F00E32289828A83E49322E4
:102E3800BB010689828A83F0225002F722BBFE0179
:022E4800F32273
:102E4A00C5F0F8A3E028F0C5F0F8E5821582700213
:062E5A001583E038F022B0
:102E6000A3F8E0C5F025F0F0E58215827002158325
:062E7000E0C838F0E82282
:102E7600EB9FF5F0EA9E42F0E99D42F0EC6480C8D3
:062E860064809845F02273
:00000001FF
:022100060000D7
